:1000000073C0000078C10000ABC10000DEC1000079
:1000100011C2000044C2000077C20000AAC2000062
:10002000DDC2000082C0000080C000007EC0000071
:100030007CC000007AC0000078C0000076C00000DC
:1000400074C0000072C0000070C000006EC00000EC
:100050006CC000006AC0000068C0000066C00000FC
:1000600064C00000BCC40000EBC400005EC000001F
:100070005CC000005AC0000058C0000056C000001C
:1000800054C0000052C0000050C000004EC000002C
:100090004CC000004AC0000048C0000046C000003C
:1000A00044C0000042C0000040C000003EC000004C
:1000B0003CC000003AC0000038C0000036C000005C
:1000C00034C0000032C0000030C000002EC000006C
:1000D0002CC000002AC0000028C0000026C000007C
:1000E00024C000002504310411241FBECFEFD1E24B
:1000F000DEBFCDBF00E00CBF22E0A0E0B2E001C057
:100100001D92A531B207E1F710E0C3E7D0E000E0AF
:1001100005C021970109802FFE01E5D4C237D10720
:1001200080E00807B1F7EFD2E6C46ACFCF93DF9340
:100130001F921F92CDB7DEB79A83898389819A81F6
:10014000FC0180819181FC0119950F900F90DF9146
:10015000CF910895CF93DF9300D000D0CDB7DEB715
:100160009A8389836B834C833E832D8389819A8113
:100170002B81FC01228389819A81FC018281837019
:10018000880F8093000289819A8190D089819A8119
:10019000FC018281843020F589E690E029E630E098
:1001A000F9012081622F20910002422F50E023E0CC
:1001B00030E002C0220F331F4A95E2F720956223F8
:1001C0002C81222F30E040910002442F50E002C0E9
:1001D000220F331F4A95E2F7262BFC01208323C010
:1001E0008AE690E02AE630E0F9012081622F209132
:1001F0000002422F50E023E030E002C0220F331F04
:100200004A95E2F7209562232C81222F30E040911D
:100210000002442F50E002C0220F331F4A95E2F73C
:10022000262BFC01208389819A812D813E81FC014E
:100230003183208389819A81FC018281882F90E01B
:10024000880F991F8F5F9D4F29813A81FC0131836F
:10025000208326960FB6F894DEBF0FBECDBFDF9188
:10026000CF910895CF93DF931F921F92CDB7DEB742
:100270009A8389838DE390E02DE330E0F9012081BA
:10028000622F29813A81F9012281422F50E021E039
:1002900030E002C0220F331F4A95E2F7262BFC0103
:1002A00020830F900F90DF91CF910895CF93DF932C
:1002B0001F921F92CDB7DEB79A8389838DE390E0BA
:1002C0002DE330E0F9012081622F29813A81F90183
:1002D0002281422F50E021E030E002C0220F331F84
:1002E0004A95E2F720952623FC0120830F900F907A
:1002F000DF91CF9108951F920F9200905F000F92AF
:10030000112400905B000F922F933F934F935F93C4
:100310006F937F938F939F93AF93BF93EF93FF93CD
:10032000CF93DF93CDB7DEB78091010290910202A7
:10033000FDDEDF91CF91FF91EF91BF91AF919F9142
:100340008F917F916F915F914F913F912F910F907E
:1003500000925B000F9000925F000F901F90189525
:100360001F920F9200905F000F92112400905B008B
:100370000F922F933F934F935F936F937F938F933E
:100380009F93AF93BF93EF93FF93CF93DF93CDB73B
:10039000DEB78091030290910402C8DEDF91CF9115
:1003A000FF91EF91BF91AF919F918F917F916F914D
:1003B0005F914F913F912F910F9000925B000F90B2
:1003C00000925F000F901F9018951F920F9200905F
:1003D0005F000F92112400905B000F922F933F93C8
:1003E0004F935F936F937F938F939F93AF93BF933D
:1003F000EF93FF93CF93DF93CDB7DEB780910502E4
:100400009091060293DEDF91CF91FF91EF91BF9122
:10041000AF919F918F917F916F915F914F913F919C
:100420002F910F9000925B000F9000925F000F9051
:100430001F9018951F920F9200905F000F92112449
:1004400000905B000F922F933F934F935F936F93B6
:100450007F938F939F93AF93BF93EF93FF93CF932C
:10046000DF93CDB7DEB780910702909108025EDE80
:10047000DF91CF91FF91EF91BF91AF919F918F91BC
:100480007F916F915F914F913F912F910F900092CB
:100490005B000F9000925F000F901F9018951F92C5
:1004A0000F9200905F000F92112400905B000F925A
:1004B0002F933F934F935F936F937F938F939F936C
:1004C000AF93BF93EF93FF93CF93DF93CDB7DEB797
:1004D0008091090290910A0229DEDF91CF91FF916C
:1004E000EF91BF91AF919F918F917F916F915F91AC
:1004F0004F913F912F910F9000925B000F900092CF
:100500005F000F901F9018951F920F9200905F0050
:100510000F92112400905B000F922F933F934F9303
:100520005F936F937F938F939F93AF93BF93EF935B
:10053000FF93CF93DF93CDB7DEB780910B029091FD
:100540000C02F4DDDF91CF91FF91EF91BF91AF915C
:100550009F918F917F916F915F914F913F912F91DB
:100560000F9000925B000F9000925F000F901F9021
:1005700018951F920F9200905F000F921124009027
:100580005B000F922F933F934F935F936F937F93F3
:100590008F939F93AF93BF93EF93FF93CF93DF938B
:1005A000CDB7DEB780910D0290910E02BFDDDF91D5
:1005B000CF91FF91EF91BF91AF919F918F917F91DB
:1005C0006F915F914F913F912F910F9000925B003F
:1005D0000F9000925F000F901F9018951F920F923E
:1005E00000905F000F92112400905B000F922F93F8
:1005F0003F934F935F936F937F938F939F93AF93AB
:10060000BF93EF93FF93CF93DF93CDB7DEB7809186
:100610000F02909110028ADDDF91CF91FF91EF914F
:10062000BF91AF919F918F917F916F915F914F910A
:100630003F912F910F9000925B000F9000925F000E
:100640000F901F901895CF93DF93CDB7DEB760E37F
:1006500081E192E075D10000DF91CF910895CF93B1
:10066000DF93CDB7DEB761E381E192E069D10000AD
:10067000DF91CF910895CF93DF93CDB7DEB762E3DB
:1006800081E192E05DD10000DF91CF910895CF9399
:10069000DF93CDB7DEB763E381E192E051D1000093
:1006A000DF91CF910895CF93DF93CDB7DEB764E3A9
:1006B00081E192E045D10000DF91CF910895CF9381
:1006C000DF93CDB7DEB765E381E192E039D1000079
:1006D000DF91CF910895CF93DF93CDB7DEB766E377
:1006E00081E192E02DD10000DF91CF910895CF9369
:1006F000DF93CDB7DEB767E381E192E021D100005F
:10070000DF91CF910895CF93DF93CDB7DEB7689790
:100710000FB6F894DEBF0FBECDBF23E233E042E058
:1007200060E0CE01019616DDCE0104962FE233E0A3
:1007300042E061E00FDDCE0107962BE333E042E0BB
:1007400062E008DDCE010A9627E433E042E063E090
:1007500001DDCE010D9623E533E042E064E0FADCF2
:10076000CE0140962FE533E042E065E0F3DCCE01B8
:1007700043962BE633E042E066E0ECDCCE014696A1
:1007800027E733E042E067E0E5DCCE0101966ADD71
:10079000CE01049667DDCE01079664DDCE010A9690
:1007A00061DDCE010D965EDDCE0140965BDDCE01B2
:1007B000439658DDCE01469655DD789481E192E06E
:1007C000D9D0882379F081E192E0A9D0682F81E126
:1007D00092E0B6D089E690E0FC018081682F81E14B
:1007E00092E0AED0EBCFEF920F93CF93DF9300D098
:1007F0001F92CDB7DEB79A8389837C836B8389810F
:100800009A81019771F48B819C81019651F4E12CBE
:1008100000E026E040E05BE460E070E081E192E02F
:100820002CD089819A81892B39F48B819C81019606
:1008300019F481E192E066D00F900F900F900F9025
:10084000DF91CF910F91EF900895CF93DF93CDB7C4
:10085000DEB76FEF7FEF81E090E0C5DFDF91CF91F2
:100860000895CF93DF93CDB7DEB76FEF7FEF80E0D2
:1008700090E0B9DFDF91CF910895EF920F931F932E
:10088000CF93DF93CDB7DEB72D970FB6F894DEBFC9
:100890000FBECDBF9A8389834B835C836D837E8338
:1008A0002F830887E9861092120204EC10E080E49E
:1008B00092E4AFE0B0E02B813C814D815E81BC01D0
:1008C000CD01EFD0DA01C9010197F801918380834E
:1008D00081EC90E028E9FC01208382EC90E03F81EC
:1008E0002885322B2985232BFC0120832D960FB6DA
:1008F000F894DEBF0FBECDBFDF91CF911F910F9156
:10090000EF900895CF93DF931F921F92CDB7DEB77C
:100910009A8389830F900F90DF91CF910895CF93A1
:10092000DF931F921F92CDB7DEB79A83898310920F
:100930001202809113020F900F90DF91CF910895D2
:10094000CF93DF9300D0CDB7DEB79A8389836B83D3
:100950008B818093140281EC90E021EC30E0F9016E
:1009600020812062FC0120830F900F900F90DF9177
:10097000CF910895CF93DF931F921F92CDB7DEB72B
:100980009A838983809112020F900F90DF91CF910B
:100990000895CF93DF93CDB7DEB786EC90E0FC01EE
:1009A00080818093130281E080931202DF91CF91C6
:1009B0000895CF93DF93CDB7DEB786EC90E020911A
:1009C0001402FC01208381EC90E021EC30E0F9017D
:1009D00020812F7DFC012083DF91CF9108951F920C
:1009E0000F9200905F000F92112400905B000F9215
:1009F0002F933F934F935F936F937F938F939F9327
:100A0000AF93BF93EF93FF93CF93DF93CDB7DEB751
:100A1000C0DFDF91CF91FF91EF91BF91AF919F9197
:100A20008F917F916F915F914F913F912F910F9097
:100A300000925B000F9000925F000F901F9018953E
:100A40001F920F9200905F000F92112400905B00A4
:100A50000F922F933F934F935F936F937F938F9357
:100A60009F93AF93BF93EF93FF93CF93DF93CDB754
:100A7000DEB79FDFDF91CF91FF91EF91BF91AF91F3
:100A80009F918F917F916F915F914F913F912F91A6
:100A90000F9000925B000F9000925F000F901F90EC
:100AA0001895A1E21A2EAA1BBB1BFD010DC0AA1F9F
:100AB000BB1FEE1FFF1FA217B307E407F50720F0C7
:100AC000A21BB30BE40BF50B661F771F881F991F42
:100AD0001A9469F760957095809590959B01AC018B
:100AE000BD01CF010895EE0FFF1F881F8BBF079038
:100AF000F691E02D199410E0C3E7D0E000E005C0C6
:100B0000802FFE01F0DF2196011DC437D10780E060
:080B10000807B1F7F894FFCFCC
:00000001FF
